:100000000C9463000C948B000C948B000C948B006C
:100010000C948B000C948B000C948B000C948B0034
:100020000C948B000C948B000C948B000C948B0024
:100030000C948B000C948B000C948B000C948B0014
:100040000C94D0050C948B000C948B000C948B00BA
:100050000C948B000C948B000C948B000C948B00F4
:100060000C941A060C948B0000000000240027005A
:100070002A0000000000250028002B0000000000DE
:1000800023002600290004040404040404040202DA
:100090000202020203030303030301020408102007
:1000A0004080010204081020010204081020000012
:1000B0000008000201000003040700000000000027
:1000C000000039076D0B11241FBECFEFD8E0DEBF53
:1000D000CDBF23E0ACE1B2E001C01D92A737B2076B
:1000E000E1F712E0A0E0B1E0EAE5FBE102C0059033
:1000F0000D92AC31B107D9F710E0C2E6D0E004C0F0
:100100002197FE010E94A80BC136D107C9F70E94B2
:10011000C4070C94A00D0C9400000895089596E077
:10012000899FD0011124AE50BD4F90967C936E9361
:100130005F9791E091969C939197E0915F03F09186
:10014000600390915E03992339F0309751F081114B
:1001500008C080910E030994309719F05C968C9139
:10016000FACF0895CF92DF92EF92FF920F931F93F1
:1001700096E0899FF0011124EE50FD4F11A2278DCA
:1001800030A12130310551F178F02230310509F4E8
:1001900051C02330310509F452C01F910F91FF90D7
:1001A000EF90DF90CF9008956623B9F361E070E09F
:1001B0000E948F002FB7F8948091DA029091DB02B1
:1001C000A091DC02B091DD022FBF80934A0390938F
:1001D0004B03A0934C03B0934D03DFCF9FB7F8942C
:1001E000C090DA02D090DB02E090DC02F090DD02F9
:1001F0009FBF00914A0310914B0320914C03309113
:100200004D03C01AD10AE20AF30A00915C0310916F
:100210005D0330E020E00C151D052E053F0550F470
:1002200062E070E01F910F91FF90EF90DF90CF9010
:100230000C948F006111B1CF63E070E0F3CF70E0F8
:1002400060E0F0CF0895AF92BF92CF92DF92EF922D
:10025000FF920F931F93CF93DF936C017B018B0170
:10026000040F151FEB015E01AE18BF08C017D107C0
:1002700059F06991D601ED91FC910190F081E02D4A
:10028000C6010995892B79F7C501DF91CF911F919F
:100290000F91FF90EF90DF90CF90BF90AF900895B7
:1002A000833081F028F4813099F08230A9F00895EC
:1002B0008730A9F08830C9F08430B1F48091800093
:1002C0008F7D03C0809180008F7780938000089598
:1002D00084B58F7784BD089584B58F7DFBCF8091E1
:1002E000B0008F778093B00008958091B0008F7D2B
:1002F000F9CFCF93DF93282F30E0F901E255FF4F7C
:100300008491F901E656FF4FD491F901EA57FF4F66
:10031000C491CC23A1F081110E945001EC2FF0E098
:10032000EE0FFF1FE458FF4FA591B491EC91ED2320
:1003300081E090E009F480E0DF91CF91089580E0C2
:1003400090E0FACF862F0C9479011F93CF93DF931F
:10035000282F30E0F901E255FF4F8491F901E6566C
:10036000FF4FD491F901EA57FF4FC491CC23A9F074
:10037000162F81110E945001EC2FF0E0EE0FFF1FAD
:10038000EE58FF4FA591B4918FB7F894EC911111ED
:1003900008C0D095DE23DC938FBFDF91CF911F91F2
:1003A0000895DE2BF8CF862F642F0C94A501CF93F0
:1003B000DF9390E0FC01E656FF4F24918A579F4F50
:1003C000FC0184918823C9F090E0880F991FFC01FB
:1003D000E859FF4FA591B491FC01EE58FF4FC5912C
:1003E000D49161110DC09FB7F8948C912095822310
:1003F0008C938881282328839FBFDF91CF91089514
:10040000623051F49FB7F8943C91822F80958323FA
:100410008C93E8812E2BEFCF8FB7F894EC912E2B95
:100420002C938FBFEACF862F642F0C94D7013FB750
:10043000F8948091CF029091D002A091D102B09116
:10044000D20226B5A89B05C02F3F19F00196A11D29
:10045000B11D3FBFBA2FA92F982F8827BC01CD010E
:10046000620F711D811D911D42E0660F771F881F6D
:10047000991F4A95D1F708958F929F92AF92BF929C
:10048000CF92DF92EF92FF924B015C010E94170224
:100490006B017C010E9417026C197D098E099F096E
:1004A000683E734081059105A8F321E0821A910806
:1004B000A108B10888EEC80E83E0D81EE11CF11C2B
:1004C00081149104A104B10429F7FF90EF90DF900B
:1004D000CF90BF90AF909F908F90089520915D0234
:1004E000260F3327331F21323105ECF42091A60269
:1004F000FC0190E080E0243069F082E00895A09152
:100500005D022191AC01435C5D4FA40FB52FB11D7D
:100510002C930196861798F380915D02680F609383
:100520005D0280E0089581E008951092A60281E0C6
:100530008093A5021092800261E082E10E94A501F1
:1005400061E083E10E94A501E9EBF0E080818E7F0C
:10055000808380818D7F808388E48093B80085E4E8
:100560008093BC000895CF93DF9391E090933C0279
:100570008823B9F0C091B800D091BA008091BC0036
:100580008A7B8093BC0060E082E10E94A50160E06C
:1005900083E10E94A5010E949502D093BA00C09306
:1005A000B800DF91CF9108950895E091E502809120
:1005B000E402E81730F4F0E0E45EFD4F808190E063
:1005C00008958FEF9FEF08959091E5028091E402E6
:1005D0002FEF3FEF981748F4E92FF0E0E45EFD4F6E
:1005E000208130E09F5F9093E502C90108958091DA
:1005F000E4029091E502891B990B0895CF92DF9256
:10060000EF92FF920F931F93CF93DF937C01CB0167
:100610008A012091AC02222389F0EB016B01C40E08
:10062000D51ECC15DD0569F06991D701ED91FC91DE
:100630000190F081E02DC7010995F3CF642F0E944E
:100640006E02C801DF91CF911F910F91FF90EF9043
:10065000DF90CF900895CF93DF931F92CDB7DEB791
:1006600069832091AC022223F9F02091E20220322A
:1006700058F021E030E0FC013383228390E080E0F9
:100680000F90DF91CF9108958091E302E82FF0E081
:10069000E355FD4F998190838F5F8093E3028093B0
:1006A000E20281E090E0ECCF61E0CE0101960E9491
:1006B0006E02F7CFCF92DF92EF92FF920F931F93CC
:1006C000CF93DF93FC01C48121E02093AC02C0935F
:1006D000CD021092E3021092E2028385682B86EE2F
:1006E00092E00E942B03D091E202D13208F092C036
:1006F0000E9417026B017C018091A602811165C0E6
:1007000082E08093A60281E08093A5028FEF809320
:10071000A4021092A302D093A202ADEAB2E0E2E8F2
:10072000F2E080E0D81385C01092810280918102AE
:10073000CC0FC82BC093810280918002813009F0D8
:100740007CC0109280020E9417026B017C01809194
:1007500081028093BB008091A8029091A902A09190
:10076000AA02B091AB02892B8A2B8B2B99F00E94A5
:1007700017020091A8021091A9022091AA023091BB
:10078000AB026C197D098E099F0906171707280708
:100790003907E0F18091BC0083FDD9CF85EC8093CF
:1007A000BC000E9417026B017C018091A60282307E
:1007B00009F445C08091A4028F3F61F18091A402A9
:1007C000803241F18091A40225C08091A8029091CD
:1007D000A902A091AA02B091AB02892B8A2B8B2B84
:1007E00009F48ACF0E9417020091A8021091A90271
:1007F0002091AA023091AB026C197D098E099F09E4
:10080000061717072807390708F076CF8091A70247
:100810000E94B3021092E3021092E2021092AC0224
:10082000DF91CF911F910F91FF90EF90DF90CF90CC
:1008300008959D9191938F5F75CF85EEB0CF809194
:10084000A8029091A902A091AA02B091AB02892BB3
:100850008A2B8B2B09F4A9CF0E9417020091A802C2
:100860001091A9022091AA023091AB026C197D0966
:100870008E099F09061717072807390708F095CF33
:10088000C5CF90E080E0089561E08AE00E94A50174
:1008900060E08BE00E94A50168EE73E080E090E0EC
:1008A0000C943C020F931F93CF938C01C62F0E9490
:1008B0005A036C2F6460C8010E945A036C2F6B7F2F
:1008C000C8010E945A0383EC90E00197F1F7CF91A1
:1008D0001F910F9108950F931F93CF93DF938C0176
:1008E000D62FC42F607F642B0E94520480E1D89FD2
:1008F000B00111246C2BC801DF91CF911F910F9192
:100900000C94520440E061E087E693E00E946B049F
:100910008BE39FE10197F1F70895CF93DF93CDB774
:10092000DEB728970FB6F894DEBF0FBECDBF98E0B4
:10093000E9E1F1E0DE01119601900D929A95E1F75F
:1009400090916F03961710F46FEF690F262F30E028
:10095000220F331F41E050E04C0F5D1F240F351F65
:10096000F9016081680F606840E087E693E02896AF
:100970000FB6F894DEBF0FBECDBFDF91CF910C94C0
:100980006B04CF93DF931092E5021092E402109271
:10099000E3021092E2020E9495028DE890E09093AB
:1009A000E1028093E0028EE890E09093DF02809372
:1009B000DE0210926C0380917103823018F098E08F
:1009C00090936C0380936F0362E370E080E090E0AB
:1009D0000E943C026091720387E693E00E945A03F2
:1009E00068EE73E080E090E00E943C0260E387E6FE
:1009F00093E00E945204CBE4D6E4CE010197F1F7D4
:100A000060E387E693E00E9452042197F1F760E3E8
:100A100087E693E00E94520483E592E00197F1F7A4
:100A200060E287E693E00E94520460916C0360628A
:100A300040E087E693E00E946B0484E080936D03BE
:100A400040E06CE087E693E00E946B040E94820421
:100A500082E080936E0340E066E087E693E00E94C8
:100A60006B0440E062E087E693E00E946B048BE356
:100A70009FE10197F1F7DF91CF91089541E00E9446
:100A80006B0481E090E00895FC0101900020E9F7FB
:100A90003197AF01481B590BBC0187E693E00C94DA
:100AA0002301FC0180819181009711F00C944A0C84
:100AB0000895EF92FF920F931F93CF93DF93EC0172
:100AC0007B018A0188819981009729F02A813B81E5
:100AD0002417350788F4B8016F5F7F4F0E94D30C4D
:100AE000009791F0998388831B830A832C813D8131
:100AF000232B11F4FC0110821D830C83B701888124
:100B000099810E94990D0CC088819981009711F0FC
:100B10000E944A0C198218821D821C821B821A8232
:100B2000CE01DF91CF911F910F91FF90EF9008952B
:100B300085ED8093BC008091A8029091A902A091BC
:100B4000AA02B091AB020796A11DB11D23E0B69594
:100B5000A795979587952A95D1F72091BC0024FDFC
:100B600003C01092A60208954091A8025091A902D4
:100B70006091AA027091AB02452B462B472B69F37B
:100B80000097A105B10541F025E32A95F1F7000092
:100B90000197A109B109E1CF8091A7020C94B3029A
:100BA0001F920F920FB60F9211242F933F938F93A2
:100BB0009F93AF93BF938091DA029091DB02A09153
:100BC000DC02B091DD023091CE0223E0230F2D37FD
:100BD00058F50196A11DB11D2093CE028093DA0233
:100BE0009093DB02A093DC02B093DD028091CF02F0
:100BF0009091D002A091D102B091D2020196A11D94
:100C0000B11D8093CF029093D002A093D102B093F4
:100C1000D202BF91AF919F918F913F912F910F90F1
:100C20000FBE0F901F90189526E8230F0296A11D66
:100C3000B11DD2CF1F920F920FB60F9211242F9396
:100C40003F934F935F936F937F938F939F93AF9354
:100C5000BF93EF93FF938091B900887F803609F4AA
:100C60004AC0F0F5883209F4A7C018F5803109F4BC
:100C70009BC0B8F4882309F4F9C0883009F494C003
:100C8000FF91EF91BF91AF919F918F917F916F9164
:100C90005F914F913F912F910F900FBE0F901F903A
:100CA0001895883109F488C0803251F78093A402E6
:100CB00014C0803409F49DC040F48033B9F3883304
:100CC000F9F68093A40285ECB0C0803509F485C0A4
:100CD000883509F496C0883499F60E949805D0CFDB
:100CE000883909F48CC038F5883729F050F48836F3
:100CF00011F0803729F683E08093A60210927F02DC
:100D000057C0883809F47BC0803919F0803809F061
:100D1000B7CF80917F02803208F071C0E0917F02EE
:100D200081E08E0F80937F028091BB00F0E0E15A5A
:100D3000FD4F80833DC0803B39F0E0F4803A09F4F8
:100D400079C0883A09F09CCF84E08093A602109283
:100D50005E0210925D02E091E002F091E1020995DD
:100D600080915D0281110FC081E080935D0210923D
:100D70003D0209C0803C09F4A6CF883C09F4A3CF0A
:100D8000883B09F07DCFE0915E0281E08E0F809379
:100D90005E02F0E0E35CFD4F80818093BB009091A8
:100DA0005E0280915D0229C0809181028093BB0028
:100DB00085EC8093BC0064CF9091A3028091A20245
:100DC000981758F5E091A30281E08E0F8093A3025B
:100DD000F0E0EE57FD4F8081E9CFE091A30281E082
:100DE0008E0F8093A3028091BB00F0E0EE57FD4F81
:100DF00080839091A3028091A2029817C8F285E89F
:100E0000D8CFE091A30281E08E0F8093A30280915E
:100E1000BB00F0E0EE57FD4F80838091A502811169
:100E20005CCF81E08093800284EA8093BC001092C2
:100E3000A60226CF85EC8093BC001092A60280917A
:100E40007F02803230F4E0917F02F0E0E15AFD4F02
:100E5000108260917F0270E0E091DE02F091DF028B
:100E60008FE592E0099510927F020ACF1092A402BA
:100E700034CF1092E9021092E80288EE93E0A0E0ED
:100E8000B0E08093EA029093EB02A093EC02B0935F
:100E9000ED0285E291E09093E7028093E6021092E2
:100EA0006A031092690381E491E090936803809350
:100EB00067038FE380936B0384E18093700384E086
:100EC0008093710310927203109262031092610377
:100ED00010926403109263031092660310926503EC
:100EE00044E050E069E471E081E693E00E94590536
:100EF0001092F4021092F8021092F7021092F90286
:100F000087E391E09093F3028093F202EEE0F3E046
:100F10001082148213821582369683E0EA34F80731
:100F2000B9F783E091E0909355038093540380E0F8
:100F300091E0909357038093560384E08093580385
:100F400083E08093590387E091E09093530380936B
:100F500052038AE090E090935B0380935A0384EFFE
:100F600091E090935D0380935C0310926003109274
:100F70005F0310924E0310924F0310925003109291
:100F8000510310925E030895CF93DF93CDB7DEB780
:100F90006C970FB6F894DEBF0FBECDBF789484B5C2
:100FA000826084BD84B5816084BD85B5826085BD65
:100FB00085B5816085BD80916E00816080936E00F3
:100FC00010928100809181008260809381008091E5
:100FD0008100816080938100809180008160809396
:100FE00080008091B10084608093B1008091B00056
:100FF00081608093B00080917A00846080937A0051
:1010000080917A00826080937A0080917A0081607A
:1010100080937A0080917A00806880937A001092A1
:10102000C10061E08AE00E94D70161E08BE00E948C
:10103000D70161E08CE00E94D7010E94C1040E94A8
:10104000C10488E08093720360E087E693E00E9429
:101050005A038EE491E00E94440561E080E00E9422
:101060008D0483E691E00E94440562E080E00E94E6
:101070008D0488E791E00E94440563E080E00E94CF
:101080008D048DE891E00E94440568EB7BE080E0F0
:1010900090E00E943C020E9482040E94440464E1A9
:1010A00070E080E090E00E943C02812C912C540181
:1010B00083943E0123E1620E711C6E0139E1C30E7F
:1010C000D11C0E94820482EA91E00E94440564E6F9
:1010D00070E080E090E00E943C0281E080935E033B
:1010E0008FB7F8944091DA025091DB026091DC02F4
:1010F0007091DD028FBF80914E0390914F03A091BC
:101100005003B0915103481B590B6A0B7B0B809124
:101110005A0390915B03B0E0A0E084179507A607FF
:10112000B70708F015C110E080915803181760F454
:10113000E0915403F0915503E10FF11D62E08081CD
:101140000E94D7011F5FF0CF312C809159033816D0
:1011500008F064C0E32CF12CE0915603F0915703A2
:10116000EE0DFF1D61E080810E94D701E0915603E2
:10117000F0915703EE0DFF1D60E080810E94A501F4
:10118000D501C401032C04C0880F991FAA1FBB1FDF
:101190000A94D2F79C8F8B8F2C0140945094212C71
:1011A00080915803281618F5022D10E0E0915403A1
:1011B000F0915503E00FF11F80810E9479010C5FCF
:1011C0001F4F000F111FF801EE50FD4F892B51F4F6
:1011D000808191812B8D3C8D822B932B91838083F9
:1011E0002394DECF8081918184219521F7CFE091F6
:1011F0005603F0915703EE0DFF1D61E080810E94C0
:10120000A5018091560390915703E80EF91E60E006
:10121000F70180810E94D701339497CF02EF12E04B
:101220007801F701878D90A1892B31F4148E2FEF6F
:101230003FEF368F258F11A236E0E30EF11C5EE200
:10124000E51653E0F50669F7512C809158035816BE
:1012500008F053C0412C252C312C220C331CC10129
:1012600086509D4F1C0120915903421608F043C03F
:10127000F10160817181042C02C0769567950A9412
:10128000E2F7529E90011124240D311DE2EFF2E0AD
:1012900080E0458D568D2417350709F41CC28F5FF9
:1012A00036968A30B1F760FF24C0E2EFF2E090E0BA
:1012B00080E0448D411118C0E0915203F091530336
:1012C000E20FF31F408156E0589FF001599FF00D47
:1012D0001124EE50FD4F448F368F258F10A2178EAC
:1012E00061E00E94B20005C0019636968A309105F1
:1012F00001F74394B8CF5394A8CF80E0F80191A1AF
:101300009111892F0A5F1F4FE016F106B9F79FB7B9
:10131000F8944091DA025091DB026091DC02709106
:10132000DD029FBF40934E0350934F0360935003E1
:1013300070935103882361F080911303882341F057
:10134000809111039091120350900E03019719F0B0
:1013500010925E03512C8E010F5F1F4F7801F80130
:1013600011821082138212821582148250E040E0B2
:101370006CE871E0C8010E9459050A5F1F4F06150D
:10138000170569F7552009F4A5C00E94820482EA76
:1013900091E00E9444050091D8021091D90262E0C8
:1013A000802F0E948D0441E0652D87E693E00E9426
:1013B0006B0464EF71E080E090E00E943C02FAE28E
:1013C0005F1619F023E2521298C01092D9021092BF
:1013D000D8020E9444040E9482048091D802909115
:1013E000D902049709F076C08091D6029091D70275
:1013F000181619060CF039C18091D4029091D502CB
:1014000001969093D5028093D4021092D702109245
:10141000D6021092D9021092D8020E94820462E091
:1014200080E00E948D0487EB91E00E94440568EE05
:1014300073E080E090E00E943C020E9444048091AE
:10144000D4029091D502039709F044C01092D502BE
:101450001092D4020E94820461E080E00E948D0418
:1014600085EF91E00E94440562E080E00E948D04D7
:101470008AE092E00E94440561E08CE00E94A501B0
:1014800068EE73E080E090E00E943C0260E08CE057
:101490000E94A50168EE73E080E090E00E943C02AB
:1014A00061E08CE00E94A50168EE73E080E090E0CE
:1014B0000E943C0260E08CE00E94A50168EE73E0AF
:1014C00080E090E00E943C0264EF71E080E090E0F8
:1014D0000E943C02CE010D960E945105CE01079656
:1014E0000E945105C7010E94510580E090E0892BC0
:1014F00009F4E7CD0E940000E4CD8091650390914E
:1015000066030817190730F4E0916103F091620354
:10151000309779F51092D302E3EDF2E020812511A6
:1015200086C01C8A1B8A1E8A1D8A188E1F8A598EA5
:101530001A8EF60101900020E9F731978F010C19FE
:101540001D09B8016F5F7F4F90E080E00E94D30CCF
:10155000009791F09C8B8B8B1E8B0D8B2F89388D78
:10156000232B09F443C0188F0F8BB6010E94990DED
:101570000DC0E00FF11FD2CF8B899C890097C9F570
:101580001C8A1B8A188E1F8A1E8A1D8A0091D80207
:101590001091D902F6E0F09F2001F19F500C112428
:1015A0004E0C5F1CF20180819181009739F16B89AB
:1015B0007C896115710501F1428153812F89388D34
:1015C00042175307C8F00E94990D8F89988DF20138
:1015D00095838483188E1F8AC3010E9451050F5F73
:1015E0001F4F1093D9020093D802F7CEFC0110824E
:1015F000BACF0E944A0CC4CF0E944A0C26E0209F1A
:10160000F001219FF00D1124EE0DFF1D8B899C89A7
:10161000918380838D899E89938382838F89988D1E
:10162000958384831C8A1B8A1E8A1D8AD3CF081740
:10163000190730F4E0916103F0916203309791F45F
:101640001092D302E3EDF2E08081851509F4C5CE56
:101650008091D6029091D70201969093D702809301
:10166000D602BDCFE00FF11FEFCF892B09F0E7CEF7
:101670001092D9021092D8020E94820461E080E0A8
:101680000E948D048CEC91E00E94440562E080E0B1
:101690000E948D0480EE91E00E94440568E873E1A9
:1016A00080E090E00E943C0260E08AE00E94A50198
:1016B00061E08BE00E94A50168E873E180E090E0C2
:1016C0000E943C0261E08AE00E94A50160E08BE09C
:1016D0000E94A501B4CE617004CE81E693E00C9423
:1016E00051052F923F924F925F926F927F928F920D
:1016F0009F92AF92BF92CF92DF92EF92FF920F93A1
:101700001F93CF93DF93CDB7DEB7CA1BDB0B0FB6AA
:10171000F894DEBF0FBECDBF09942A883988488867
:101720005F846E847D848C849B84AA84B984C884FD
:10173000DF80EE80FD800C811B81AA81B981CE0FF4
:10174000D11D0FB6F894DEBF0FBECDBFED010895D9
:10175000EE0FFF1F0590F491E02D09940F931F9356
:10176000CF93DF938230910510F482E090E0E09116
:101770007503F091760330E020E0B0E0A0E0309710
:1017800099F42115310509F44AC0281B390B24307E
:101790003105D8F58A819B816115710589F1FB01BD
:1017A00093838283FE0111C04081518102811381A4
:1017B00048175907E0F04817590799F4109761F056
:1017C00012960C93129713961C933296CF01DF91C9
:1017D000CF911F910F910895009375031093760395
:1017E000F4CF2115310551F04217530738F0A90104
:1017F000DB019A01BD01DF01F801C1CFEF01F9CF93
:101800009093760380937503CDCFFE01E20FF31F13
:10181000819391932250310939832883D7CF209126
:10182000730330917403232B41F4209115013091FF
:1018300016013093740320937303209113013091A8
:1018400014012115310541F42DB73EB74091170120
:1018500050911801241B350BE0917303F091740330
:10186000E217F307A0F42E1B3F0B2817390778F077
:10187000AC014E5F5F4F2417350748F04E0F5F1FD6
:101880005093740340937303819391939FCFF0E03F
:10189000E0E09CCFCF93DF930097E9F0FC01329713
:1018A00013821282A0917503B0917603ED0130E0AE
:1018B00020E01097A1F420813181820F931F2091A5
:1018C0007303309174032817390709F061C0F0934E
:1018D0007403E0937303DF91CF910895EA01CE176B
:1018E000DF07E8F54A815B819E0141155105B1F79B
:1018F000E901FB83EA8349915991C40FD51FEC1785
:10190000FD0761F4808191810296840F951FE901A2
:1019100099838883828193819B838A83F0E0E0E0CE
:1019200012968D919C9113970097B9F52D913C914A
:101930001197CD010296820F931F2091730330916E
:1019400074032817390739F6309751F5109276034A
:1019500010927503B0937403A0937303BCCFD38329
:10196000C28340815181840F951FC817D90761F444
:101970004E5F5F4F88819981480F591F5183408383
:101980008A819B81938382832115310509F0B0CF31
:10199000F0937603E09375039ECFFD01DC01C0CF89
:1019A00013821282D7CFB0E0A0E0E9EDFCE00C9406
:1019B000730B8C01009751F4CB010E94AE0B8C018C
:1019C000C801CDB7DEB7E0E10C948F0BFC01E60F48
:1019D000F71F9C0122503109E217F30708F49DC05C
:1019E000D901CD91DC911197C617D70798F0C53072
:1019F000D10530F3CE0104978617970708F3C61B6D
:101A0000D70B2297C193D1936D937C93CF010E9402
:101A10004A0CD6CF5B01AC1ABD0A4C018C0E9D1E40
:101A2000A0917503B0917603512C412CF12CE12C3F
:101A3000109731F58091730390917403881599057F
:101A400009F05CC04616570608F058C08091130193
:101A500090911401009741F48DB79EB74091170102
:101A600050911801841B950BE817F90708F055C031
:101A7000F0937403E0937303F90171836083A0CF43
:101A80008D919C91119712966C90129713967C9061
:101A90001397A815B90559F56C0142E0C40ED11C85
:101AA000CA14DB0420F1AC014A195B09DA01129671
:101AB000159780F06282738251834083D9016D93C0
:101AC0007C93E114F10471F0D7011396FC93EE932B
:101AD000129776CF22968C0F9D1FF90191838083F8
:101AE000F301EFCFF0937603E093750369CF4816C7
:101AF000590608F42C017D01D3019ACFCB010E9435
:101B0000AE0B7C01009749F0AE01B8010E94900D28
:101B1000C8010E944A0C870153CF10E000E050CF6B
:101B2000FB01DC0102C001900D9241505040D8F7FA
:101B30000895FB01DC0101900D920020E1F708956A
:101B400010E0C2E6D0E004C0FE010E94A80B21967E
:0A1B5000C336D107C9F7F894FFCFA0
:101B5A000304050607080931323334353637383974
:101B6A002A3023000077038000000040001400544C
:101B7A0000000000002B03FE024104D402F702E435
:101B8A0002D502000000001302D301A201000000E6
:101B9A00003E052301410422013732393600202054
:101BAA00202020202020446F6F7220202020202017
:101BBA002020002020204C6F636B696E67205379C8
:101BCA007374656D202020002020202020202020F2
:101BDA002042793A20202020202020200020205056
:101BEA0072617368616E742047616C67756E6465B3
:101BFA00200020456E74657220556E6C6F636B20F1
:101C0A00436F64653A2000202020436F64652049B1
:101C1A006E636F727265637420202000202020207A
:101C2A00202057656C636F6D6521202020202000DD
:101C3A00202020416363657373204772616E746567
:101C4A006420202000202020205741524E494E4730
:101C5A0020202121212120202000202020416363EF
:0C1C6A006573732044656E6965640000BA
:00000001FF
